:100000001DC037C036C035C034C0A0C032C031C0FA
:1000100030C02FC02EC02DC02CC02BC02AC0000065
:100020000000370000000000380002020202020255
:1000300001020408102001020000040011241FBE68
:10004000CFE5D1E0DEBFCDBF10E0A0E6B0E0ECE34D
:10005000F4E002C005900D92A036B107D9F720E078
:10006000A0E6B0E001C01D92AA37B207E1F7B8D010
:10007000E3C1C6CFE6E3F0E09491E0E3F0E0249141
:10008000EAE2F0E0E491EE2309F43BC0992311F198
:10009000913031F49AB59F779ABD9AB59F7B07C08E
:1000A000923039F49AB59F7D9ABD9AB59F7E9ABDDC
:1000B00011C0933039F490B79F7D90BF90B79F7E69
:1000C00090BF08C0943031F49CB59F7D9CBD9CB519
:1000D0009F7E9CBDF0E0EE0FFF1FEC5DFF4FA591F2
:1000E000B491811108C09FB7F8948C912095282372
:1000F0002C939FBF08958FB7F894EC912E2B2C93DF
:100100008FBF08958F7087B987B187B9369A3699AE
:10011000FECF84B125B190E0922B0895E0E6F0E0A7
:10012000908181E0982790839FB7F8944091760062
:100130005091770060917800709179009FBF418362
:100140005283638374839081892794CF1F920F9287
:100150000FB60F9211242F933F938F939F93AF93DA
:10016000BF938091760090917700A0917800B09134
:1001700079003091750026E0230F2D3730F029E803
:10018000230F0396A11DB11D03C00296A11DB11D31
:10019000209375008093760090937700A093780069
:1001A000B09379008091710090917200A0917300DA
:1001B000B09174000196A11DB11D809371009093C0
:1001C0007200A0937300B0937400BF91AF919F91A0
:1001D0008F913F912F910F900FBE0F901F90189508
:1001E00081B781BF8AB582608ABD8AB581608ABDC8
:1001F00083B7887F826083BF789489B7826089BF24
:1002000080B7807F80BF80B7806880BF80B7806400
:1002100080BF8CB580648CBD8FEF8DBD80B784604E
:1002200080BF86B18877836886B9379AE0E3F0E0CB
:100230002491EAE2F0E08491882399F090E0880F1D
:10024000991FFC01E25EFF4FA591B491FC01EC5DAA
:10025000FF4F859194918FB7F894EC91E22BEC933A
:100260008FBF80E007DF81E0809360002FB7F894B4
:100270008091760090917700A0917800B0917900FC
:100280002FBF8093610090936200A0936300B093AE
:10029000640088248A9483E0982EA12CB12C83E8F2
:1002A00031DF909366008093650082E82BDF7C014C
:1002B000909368008093670060916500709166007C
:1002C000072E000C880B990B27E037E040E050E048
:1002D0005CD0A501940172D0DA01C9010196A11D7B
:1002E000B11D90936A0080936900B701FF0C880BE1
:1002F000990B27E037E040E050E047D0A50194019A
:100300005DD0DA01C9010196A11DB11D90936C0069
:1003100080936B008FB7F894C0907600D0907700F0
:10032000E0907800F09079008FBF8091610090910B
:100330006200A0916300B0916400C81AD90AEA0A69
:10034000FB0AC0926D00D0926E00E0926F00F092B6
:10035000700080916000882399F060916B0070912B
:100360006C0080E090E028EE33E040E050E00DD0FB
:10037000C616D706E806F90608F491CFCFDE8FCF70
:100380006091690070916A00ECCFEE27FF27AA27E1
:10039000BB2708C0A20FB31FE41FF51F220F331F96
:1003A000441F551F969587957795679598F37040EC
:1003B000A9F7009799F7BD01CF010895052E97FB86
:1003C00016F400940FD057FD05D014D007FC02D0CE
:1003D00046F408C050954095309521953F4F4F4FBA
:1003E0005F4F089590958095709561957F4F8F4FE1
:1003F0009F4F0895A1E21A2EAA1BBB1BFD010DC041
:10040000AA1FBB1FEE1FFF1FA217B307E407F507C4
:1004100020F0A21BB30BE40BF50B661F771F881FA0
:10042000991F1A9469F760957095809590959B0136
:0C043000AC01BD01CF010895F894FFCF8E
:00000001FF
